{
  "_format": "hh-sol-artifact-1",
  "contractName": "MyEpicNFTv3",
  "sourceName": "contracts/MyEpicNFTv3.sol",
  "abi": [
    {
      "inputs": [],
      "stateMutability": "nonpayable",
      "type": "constructor"
    },
    {
      "anonymous": false,
      "inputs": [
        {
          "indexed": true,
          "internalType": "address",
          "name": "owner",
          "type": "address"
        },
        {
          "indexed": true,
          "internalType": "address",
          "name": "approved",
          "type": "address"
        },
        {
          "indexed": true,
          "internalType": "uint256",
          "name": "tokenId",
          "type": "uint256"
        }
      ],
      "name": "Approval",
      "type": "event"
    },
    {
      "anonymous": false,
      "inputs": [
        {
          "indexed": true,
          "internalType": "address",
          "name": "owner",
          "type": "address"
        },
        {
          "indexed": true,
          "internalType": "address",
          "name": "operator",
          "type": "address"
        },
        {
          "indexed": false,
          "internalType": "bool",
          "name": "approved",
          "type": "bool"
        }
      ],
      "name": "ApprovalForAll",
      "type": "event"
    },
    {
      "anonymous": false,
      "inputs": [
        {
          "indexed": false,
          "internalType": "address",
          "name": "sender",
          "type": "address"
        },
        {
          "indexed": false,
          "internalType": "uint256",
          "name": "tokenId",
          "type": "uint256"
        }
      ],
      "name": "NewEpicNFTMinted",
      "type": "event"
    },
    {
      "anonymous": false,
      "inputs": [
        {
          "indexed": true,
          "internalType": "address",
          "name": "from",
          "type": "address"
        },
        {
          "indexed": true,
          "internalType": "address",
          "name": "to",
          "type": "address"
        },
        {
          "indexed": true,
          "internalType": "uint256",
          "name": "tokenId",
          "type": "uint256"
        }
      ],
      "name": "Transfer",
      "type": "event"
    },
    {
      "inputs": [
        {
          "internalType": "address",
          "name": "to",
          "type": "address"
        },
        {
          "internalType": "uint256",
          "name": "tokenId",
          "type": "uint256"
        }
      ],
      "name": "approve",
      "outputs": [],
      "stateMutability": "nonpayable",
      "type": "function"
    },
    {
      "inputs": [
        {
          "internalType": "address",
          "name": "owner",
          "type": "address"
        }
      ],
      "name": "balanceOf",
      "outputs": [
        {
          "internalType": "uint256",
          "name": "",
          "type": "uint256"
        }
      ],
      "stateMutability": "view",
      "type": "function"
    },
    {
      "inputs": [
        {
          "internalType": "uint256",
          "name": "tokenId",
          "type": "uint256"
        }
      ],
      "name": "getApproved",
      "outputs": [
        {
          "internalType": "address",
          "name": "",
          "type": "address"
        }
      ],
      "stateMutability": "view",
      "type": "function"
    },
    {
      "inputs": [
        {
          "internalType": "address",
          "name": "owner",
          "type": "address"
        },
        {
          "internalType": "address",
          "name": "operator",
          "type": "address"
        }
      ],
      "name": "isApprovedForAll",
      "outputs": [
        {
          "internalType": "bool",
          "name": "",
          "type": "bool"
        }
      ],
      "stateMutability": "view",
      "type": "function"
    },
    {
      "inputs": [],
      "name": "makeAnEpicNFT",
      "outputs": [],
      "stateMutability": "nonpayable",
      "type": "function"
    },
    {
      "inputs": [],
      "name": "maxSupply",
      "outputs": [
        {
          "internalType": "uint256",
          "name": "",
          "type": "uint256"
        }
      ],
      "stateMutability": "view",
      "type": "function"
    },
    {
      "inputs": [],
      "name": "name",
      "outputs": [
        {
          "internalType": "string",
          "name": "",
          "type": "string"
        }
      ],
      "stateMutability": "view",
      "type": "function"
    },
    {
      "inputs": [],
      "name": "numMinted",
      "outputs": [
        {
          "internalType": "uint256",
          "name": "",
          "type": "uint256"
        }
      ],
      "stateMutability": "view",
      "type": "function"
    },
    {
      "inputs": [
        {
          "internalType": "uint256",
          "name": "tokenId",
          "type": "uint256"
        }
      ],
      "name": "ownerOf",
      "outputs": [
        {
          "internalType": "address",
          "name": "",
          "type": "address"
        }
      ],
      "stateMutability": "view",
      "type": "function"
    },
    {
      "inputs": [
        {
          "internalType": "uint256",
          "name": "tokenId",
          "type": "uint256"
        }
      ],
      "name": "pickRandomColor",
      "outputs": [
        {
          "internalType": "string",
          "name": "",
          "type": "string"
        }
      ],
      "stateMutability": "view",
      "type": "function"
    },
    {
      "inputs": [
        {
          "internalType": "uint256",
          "name": "tokenId",
          "type": "uint256"
        }
      ],
      "name": "pickRandomFirstWord",
      "outputs": [
        {
          "internalType": "string",
          "name": "",
          "type": "string"
        }
      ],
      "stateMutability": "view",
      "type": "function"
    },
    {
      "inputs": [
        {
          "internalType": "uint256",
          "name": "tokenId",
          "type": "uint256"
        }
      ],
      "name": "pickRandomSecondWord",
      "outputs": [
        {
          "internalType": "string",
          "name": "",
          "type": "string"
        }
      ],
      "stateMutability": "view",
      "type": "function"
    },
    {
      "inputs": [
        {
          "internalType": "uint256",
          "name": "tokenId",
          "type": "uint256"
        }
      ],
      "name": "pickRandomThirdWord",
      "outputs": [
        {
          "internalType": "string",
          "name": "",
          "type": "string"
        }
      ],
      "stateMutability": "view",
      "type": "function"
    },
    {
      "inputs": [
        {
          "internalType": "address",
          "name": "from",
          "type": "address"
        },
        {
          "internalType": "address",
          "name": "to",
          "type": "address"
        },
        {
          "internalType": "uint256",
          "name": "tokenId",
          "type": "uint256"
        }
      ],
      "name": "safeTransferFrom",
      "outputs": [],
      "stateMutability": "nonpayable",
      "type": "function"
    },
    {
      "inputs": [
        {
          "internalType": "address",
          "name": "from",
          "type": "address"
        },
        {
          "internalType": "address",
          "name": "to",
          "type": "address"
        },
        {
          "internalType": "uint256",
          "name": "tokenId",
          "type": "uint256"
        },
        {
          "internalType": "bytes",
          "name": "_data",
          "type": "bytes"
        }
      ],
      "name": "safeTransferFrom",
      "outputs": [],
      "stateMutability": "nonpayable",
      "type": "function"
    },
    {
      "inputs": [
        {
          "internalType": "address",
          "name": "operator",
          "type": "address"
        },
        {
          "internalType": "bool",
          "name": "approved",
          "type": "bool"
        }
      ],
      "name": "setApprovalForAll",
      "outputs": [],
      "stateMutability": "nonpayable",
      "type": "function"
    },
    {
      "inputs": [
        {
          "internalType": "bytes4",
          "name": "interfaceId",
          "type": "bytes4"
        }
      ],
      "name": "supportsInterface",
      "outputs": [
        {
          "internalType": "bool",
          "name": "",
          "type": "bool"
        }
      ],
      "stateMutability": "view",
      "type": "function"
    },
    {
      "inputs": [],
      "name": "symbol",
      "outputs": [
        {
          "internalType": "string",
          "name": "",
          "type": "string"
        }
      ],
      "stateMutability": "view",
      "type": "function"
    },
    {
      "inputs": [
        {
          "internalType": "uint256",
          "name": "tokenId",
          "type": "uint256"
        }
      ],
      "name": "tokenURI",
      "outputs": [
        {
          "internalType": "string",
          "name": "",
          "type": "string"
        }
      ],
      "stateMutability": "view",
      "type": "function"
    },
    {
      "inputs": [
        {
          "internalType": "address",
          "name": "from",
          "type": "address"
        },
        {
          "internalType": "address",
          "name": "to",
          "type": "address"
        },
        {
          "internalType": "uint256",
          "name": "tokenId",
          "type": "uint256"
        }
      ],
      "name": "transferFrom",
      "outputs": [],
      "stateMutability": "nonpayable",
      "type": "function"
    }
  ],
  "bytecode": "0x608060405260405180610100016040528060d38152602001620047b060d391396008908051906020019062000036929190620007f1565b5060405180608001604052806056815260200162004883605691396009908051906020019062000068929190620007f1565b506040518060c001604052806040518060400160405280600681526020017f467269657a61000000000000000000000000000000000000000000000000000081525081526020016040518060400160405280600681526020017f566567657461000000000000000000000000000000000000000000000000000081525081526020016040518060400160405280600681526020017f5472756e6b73000000000000000000000000000000000000000000000000000081525081526020016040518060400160405280600781526020017f4b72696c6c696e0000000000000000000000000000000000000000000000000081525081526020016040518060400160405280600881526020017f48657263756c657300000000000000000000000000000000000000000000000081525081526020016040518060400160405280600581526020017f42756c6d61000000000000000000000000000000000000000000000000000000815250815250600a906006620001e692919062000882565b506040518060a001604052806040518060400160405280600881526020017f205665727375732000000000000000000000000000000000000000000000000081525081526020016040518060400160405280600c81526020017f204675736564205769746820000000000000000000000000000000000000000081525081526020016040518060400160405280601281526020017f204973205374726f6e676572205468616e20000000000000000000000000000081525081526020016040518060400160405280601081526020017f204973205765616b6572205468616e200000000000000000000000000000000081525081526020016040518060400160405280600d81526020017f20497320457175616c20546f2000000000000000000000000000000000000000815250815250600b90600562000329929190620008e9565b506040518060c001604052806040518060400160405280600481526020017f43656c6c0000000000000000000000000000000000000000000000000000000081525081526020016040518060400160405280600481526020017f476f6b750000000000000000000000000000000000000000000000000000000081525081526020016040518060400160405280600781526020017f506963636f6c6f0000000000000000000000000000000000000000000000000081525081526020016040518060400160405280600681526020017f59616d636861000000000000000000000000000000000000000000000000000081525081526020016040518060400160405280600581526020017f476f68616e00000000000000000000000000000000000000000000000000000081525081526020016040518060400160405280600381526020017f4275750000000000000000000000000000000000000000000000000000000000815250815250600c906006620004a792919062000882565b506040518060c001604052806040518060400160405280600381526020017f726564000000000000000000000000000000000000000000000000000000000081525081526020016040518060400160405280600781526020017f233038433241380000000000000000000000000000000000000000000000000081525081526020016040518060400160405280600581526020017f626c61636b00000000000000000000000000000000000000000000000000000081525081526020016040518060400160405280600681526020017f79656c6c6f77000000000000000000000000000000000000000000000000000081525081526020016040518060400160405280600481526020017f626c75650000000000000000000000000000000000000000000000000000000081525081526020016040518060400160405280600581526020017f677265656e000000000000000000000000000000000000000000000000000000815250815250600d9060066200062592919062000882565b503480156200063357600080fd5b506040518060400160405280600981526020017f5371756172654e465400000000000000000000000000000000000000000000008152506040518060400160405280600681526020017f53515541524500000000000000000000000000000000000000000000000000008152508160009080519060200190620006b8929190620007f1565b508060019080519060200190620006d1929190620007f1565b5050506200071f6040518060400160405280601e81526020017f54686973206973206d79204e465420636f6e74726163742e20576f61682100008152506200072560201b620012d21760201c565b62000b0a565b620007c5816040516024016200073c919062000a1e565b6040516020818303038152906040527f41304fac000000000000000000000000000000000000000000000000000000007bffffffffffffffffffffffffffffffffffffffffffffffffffffffff19166020820180517bffffffffffffffffffffffffffffffffffffffffffffffffffffffff8381831617835250505050620007c860201b60201c565b50565b60008151905060006a636f6e736f6c652e6c6f679050602083016000808483855afa5050505050565b828054620007ff9062000a94565b90600052602060002090601f0160209004810192826200082357600085556200086f565b82601f106200083e57805160ff19168380011785556200086f565b828001600101855582156200086f579182015b828111156200086e57825182559160200191906001019062000851565b5b5090506200087e919062000950565b5090565b828054828255906000526020600020908101928215620008d6579160200282015b82811115620008d5578251829080519060200190620008c4929190620007f1565b5091602001919060010190620008a3565b5b509050620008e591906200096f565b5090565b8280548282559060005260206000209081019282156200093d579160200282015b828111156200093c5782518290805190602001906200092b929190620007f1565b50916020019190600101906200090a565b5b5090506200094c91906200096f565b5090565b5b808211156200096b57600081600090555060010162000951565b5090565b5b8082111562000993576000818162000989919062000997565b5060010162000970565b5090565b508054620009a59062000a94565b6000825580601f10620009b95750620009da565b601f016020900490600052602060002090810190620009d9919062000950565b5b50565b6000620009ea8262000a42565b620009f6818562000a4d565b935062000a0881856020860162000a5e565b62000a138162000af9565b840191505092915050565b6000602082019050818103600083015262000a3a8184620009dd565b905092915050565b600081519050919050565b600082825260208201905092915050565b60005b8381101562000a7e57808201518184015260208101905062000a61565b8381111562000a8e576000848401525b50505050565b6000600282049050600182168062000aad57607f821691505b6020821081141562000ac45762000ac362000aca565b5b50919050565b7f4e487b7100000000000000000000000000000000000000000000000000000000600052602260045260246000fd5b6000601f19601f8301169050919050565b613c968062000b1a6000396000f3fe608060405234801561001057600080fd5b506004361061012c5760003560e01c806395d89b41116100ad578063c87b56dd11610071578063c87b56dd14610379578063d52079b4146103a9578063d5abeb01146103c7578063de9d132f146103e5578063e985e9c5146103ef5761012c565b806395d89b41146102c3578063a22cb465146102e1578063b187301f146102fd578063b88d4fde1461032d578063c575757a146103495761012c565b80632de38d68116100f45780632de38d68146101e757806342842e0e14610217578063514dc8c6146102335780636352211e1461026357806370a08231146102935761012c565b806301ffc9a71461013157806306fdde0314610161578063081812fc1461017f578063095ea7b3146101af57806323b872dd146101cb575b600080fd5b61014b600480360381019061014691906127c2565b61041f565b60405161015891906134a0565b60405180910390f35b610169610501565b60405161017691906134bb565b60405180910390f35b61019960048036038101906101949190612814565b610593565b6040516101a69190613410565b60405180910390f35b6101c960048036038101906101c49190612786565b610618565b005b6101e560048036038101906101e09190612680565b610730565b005b61020160048036038101906101fc9190612814565b610790565b60405161020e91906134bb565b60405180910390f35b610231600480360381019061022c9190612680565b6108ae565b005b61024d60048036038101906102489190612814565b6108ce565b60405161025a91906134bb565b60405180910390f35b61027d60048036038101906102789190612814565b6109ec565b60405161028a9190613410565b60405180910390f35b6102ad60048036038101906102a8919061261b565b610a9e565b6040516102ba9190613787565b60405180910390f35b6102cb610b56565b6040516102d891906134bb565b60405180910390f35b6102fb60048036038101906102f6919061274a565b610be8565b005b61031760048036038101906103129190612814565b610bfe565b60405161032491906134bb565b60405180910390f35b610347600480360381019061034291906126cf565b610d1c565b005b610363600480360381019061035e9190612814565b610d7e565b60405161037091906134bb565b60405180910390f35b610393600480360381019061038e9190612814565b610e9c565b6040516103a091906134bb565b60405180910390f35b6103b1610fee565b6040516103be9190613787565b60405180910390f35b6103cf610fff565b6040516103dc9190613787565b60405180910390f35b6103ed611004565b005b61040960048036038101906104049190612644565b61123e565b60405161041691906134a0565b60405180910390f35b60007f80ac58cd000000000000000000000000000000000000000000000000000000007bffffffffffffffffffffffffffffffffffffffffffffffffffffffff1916827bffffffffffffffffffffffffffffffffffffffffffffffffffffffff191614806104ea57507f5b5e139f000000000000000000000000000000000000000000000000000000007bffffffffffffffffffffffffffffffffffffffffffffffffffffffff1916827bffffffffffffffffffffffffffffffffffffffffffffffffffffffff1916145b806104fa57506104f98261136b565b5b9050919050565b60606000805461051090613a26565b80601f016020809104026020016040519081016040528092919081815260200182805461053c90613a26565b80156105895780601f1061055e57610100808354040283529160200191610589565b820191906000526020600020905b81548152906001019060200180831161056c57829003601f168201915b5050505050905090565b600061059e826113d5565b6105dd576040517f08c379a00000000000000000000000000000000000000000000000000000000081526004016105d4906136c7565b60405180910390fd5b6004600083815260200190815260200160002060009054906101000a900473ffffffffffffffffffffffffffffffffffffffff169050919050565b6000610623826109ec565b90508073ffffffffffffffffffffffffffffffffffffffff168373ffffffffffffffffffffffffffffffffffffffff161415610694576040517f08c379a000000000000000000000000000000000000000000000000000000000815260040161068b90613727565b60405180910390fd5b8073ffffffffffffffffffffffffffffffffffffffff166106b3611441565b73ffffffffffffffffffffffffffffffffffffffff1614806106e257506106e1816106dc611441565b61123e565b5b610721576040517f08c379a000000000000000000000000000000000000000000000000000000000815260040161071890613607565b60405180910390fd5b61072b8383611449565b505050565b61074161073b611441565b82611502565b610780576040517f08c379a000000000000000000000000000000000000000000000000000000000815260040161077790613747565b60405180910390fd5b61078b8383836115e0565b505050565b606060006107c46107a08461183c565b6040516020016107b091906133aa565b6040516020818303038152906040526119e9565b9050600a80549050816107d79190613aa1565b9050600a8181548110610813577f4e487b7100000000000000000000000000000000000000000000000000000000600052603260045260246000fd5b90600052602060002001805461082890613a26565b80601f016020809104026020016040519081016040528092919081815260200182805461085490613a26565b80156108a15780601f10610876576101008083540402835291602001916108a1565b820191906000526020600020905b81548152906001019060200180831161088457829003601f168201915b5050505050915050919050565b6108c983838360405180602001604052806000815250610d1c565b505050565b606060006109026108de8461183c565b6040516020016108ee91906133ee565b6040516020818303038152906040526119e9565b9050600d80549050816109159190613aa1565b9050600d8181548110610951577f4e487b7100000000000000000000000000000000000000000000000000000000600052603260045260246000fd5b90600052602060002001805461096690613a26565b80601f016020809104026020016040519081016040528092919081815260200182805461099290613a26565b80156109df5780601f106109b4576101008083540402835291602001916109df565b820191906000526020600020905b8154815290600101906020018083116109c257829003601f168201915b5050505050915050919050565b6000806002600084815260200190815260200160002060009054906101000a900473ffffffffffffffffffffffffffffffffffffffff169050600073ffffffffffffffffffffffffffffffffffffffff168173ffffffffffffffffffffffffffffffffffffffff161415610a95576040517f08c379a0000000000000000000000000000000000000000000000000000000008152600401610a8c90613647565b60405180910390fd5b80915050919050565b60008073ffffffffffffffffffffffffffffffffffffffff168273ffffffffffffffffffffffffffffffffffffffff161415610b0f576040517f08c379a0000000000000000000000000000000000000000000000000000000008152600401610b0690613627565b60405180910390fd5b600360008373ffffffffffffffffffffffffffffffffffffffff1673ffffffffffffffffffffffffffffffffffffffff168152602001908152602001600020549050919050565b606060018054610b6590613a26565b80601f0160208091040260200160405190810160405280929190818152602001828054610b9190613a26565b8015610bde5780601f10610bb357610100808354040283529160200191610bde565b820191906000526020600020905b815481529060010190602001808311610bc157829003601f168201915b5050505050905090565b610bfa610bf3611441565b8383611a1c565b5050565b60606000610c32610c0e8461183c565b604051602001610c1e9190613343565b6040516020818303038152906040526119e9565b9050600b8054905081610c459190613aa1565b9050600b8181548110610c81577f4e487b7100000000000000000000000000000000000000000000000000000000600052603260045260246000fd5b906000526020600020018054610c9690613a26565b80601f0160208091040260200160405190810160405280929190818152602001828054610cc290613a26565b8015610d0f5780601f10610ce457610100808354040283529160200191610d0f565b820191906000526020600020905b815481529060010190602001808311610cf257829003601f168201915b5050505050915050919050565b610d2d610d27611441565b83611502565b610d6c576040517f08c379a0000000000000000000000000000000000000000000000000000000008152600401610d6390613747565b60405180910390fd5b610d7884848484611b89565b50505050565b60606000610db2610d8e8461183c565b604051602001610d9e9190613321565b6040516020818303038152906040526119e9565b9050600c8054905081610dc59190613aa1565b9050600c8181548110610e01577f4e487b7100000000000000000000000000000000000000000000000000000000600052603260045260246000fd5b906000526020600020018054610e1690613a26565b80601f0160208091040260200160405190810160405280929190818152602001828054610e4290613a26565b8015610e8f5780601f10610e6457610100808354040283529160200191610e8f565b820191906000526020600020905b815481529060010190602001808311610e7257829003601f168201915b5050505050915050919050565b6060610ea7826113d5565b610ee6576040517f08c379a0000000000000000000000000000000000000000000000000000000008152600401610edd906136a7565b60405180910390fd5b6000600660008481526020019081526020016000208054610f0690613a26565b80601f0160208091040260200160405190810160405280929190818152602001828054610f3290613a26565b8015610f7f5780601f10610f5457610100808354040283529160200191610f7f565b820191906000526020600020905b815481529060010190602001808311610f6257829003601f168201915b505050505090506000610f90611be5565b9050600081511415610fa6578192505050610fe9565b600082511115610fdb578082604051602001610fc3929190613283565b60405160208183030381529060405292505050610fe9565b610fe484611bfc565b925050505b919050565b6000610ffa6007611ca3565b905090565b609681565b60006110106007611ca3565b9050600061101d82610790565b9050600061102a83610bfe565b9050600061103784610d7e565b90506000838383604051602001611050939291906132a7565b6040516020818303038152906040529050600061106c866108ce565b9050600060088260098560405160200161108994939291906132d8565b604051602081830303815290604052905060006110ce846110a984611cb1565b6040516020016110ba929190613365565b604051602081830303815290604052611cb1565b90506000816040516020016110e391906133cc565b60405160208183030381529060405290506110fe338a611e6f565b61113c6040518060400160405280601581526020017f0a2d2d2d2d2d2d2d2d2d2d2d2d2d2d2d2d2d2d2d2d00000000000000000000008152506112d2565b611145816112d2565b6111856040518060400160405280600181526020017f0a000000000000000000000000000000000000000000000000000000000000008152508587611ec0565b6111c36040518060400160405280601581526020017f2d2d2d2d2d2d2d2d2d2d2d2d2d2d2d2d2d2d2d2d0a00000000000000000000008152506112d2565b6111cd8982611f5f565b6111d76007611fd3565b6111fa604051806060016040528060258152602001613bfc602591398a33611fe9565b7febb98688741ffa4c7589bf325de30cf7becb63de567842e1ccdb6cb949fdc82c338a60405161122b929190613477565b60405180910390a1505050505050505050565b6000600560008473ffffffffffffffffffffffffffffffffffffffff1673ffffffffffffffffffffffffffffffffffffffff16815260200190815260200160002060008373ffffffffffffffffffffffffffffffffffffffff1673ffffffffffffffffffffffffffffffffffffffff16815260200190815260200160002060009054906101000a900460ff16905092915050565b611368816040516024016112e691906134bb565b6040516020818303038152906040527f41304fac000000000000000000000000000000000000000000000000000000007bffffffffffffffffffffffffffffffffffffffffffffffffffffffff19166020820180517bffffffffffffffffffffffffffffffffffffffffffffffffffffffff8381831617835250505050612088565b50565b60007f01ffc9a7000000000000000000000000000000000000000000000000000000007bffffffffffffffffffffffffffffffffffffffffffffffffffffffff1916827bffffffffffffffffffffffffffffffffffffffffffffffffffffffff1916149050919050565b60008073ffffffffffffffffffffffffffffffffffffffff166002600084815260200190815260200160002060009054906101000a900473ffffffffffffffffffffffffffffffffffffffff1673ffffffffffffffffffffffffffffffffffffffff1614159050919050565b600033905090565b816004600083815260200190815260200160002060006101000a81548173ffffffffffffffffffffffffffffffffffffffff021916908373ffffffffffffffffffffffffffffffffffffffff160217905550808273ffffffffffffffffffffffffffffffffffffffff166114bc836109ec565b73ffffffffffffffffffffffffffffffffffffffff167f8c5be1e5ebec7d5bd14f71427d1e84f3dd0314c0f7b2291e5b200ac8c7c3b92560405160405180910390a45050565b600061150d826113d5565b61154c576040517f08c379a0000000000000000000000000000000000000000000000000000000008152600401611543906135e7565b60405180910390fd5b6000611557836109ec565b90508073ffffffffffffffffffffffffffffffffffffffff168473ffffffffffffffffffffffffffffffffffffffff1614806115c657508373ffffffffffffffffffffffffffffffffffffffff166115ae84610593565b73ffffffffffffffffffffffffffffffffffffffff16145b806115d757506115d6818561123e565b5b91505092915050565b8273ffffffffffffffffffffffffffffffffffffffff16611600826109ec565b73ffffffffffffffffffffffffffffffffffffffff1614611656576040517f08c379a000000000000000000000000000000000000000000000000000000000815260040161164d906136e7565b60405180910390fd5b600073ffffffffffffffffffffffffffffffffffffffff168273ffffffffffffffffffffffffffffffffffffffff1614156116c6576040517f08c379a00000000000000000000000000000000000000000000000000000000081526004016116bd906135a7565b60405180910390fd5b6116d18383836120b1565b6116dc600082611449565b6001600360008573ffffffffffffffffffffffffffffffffffffffff1673ffffffffffffffffffffffffffffffffffffffff168152602001908152602001600020600082825461172c919061393c565b925050819055506001600360008473ffffffffffffffffffffffffffffffffffffffff1673ffffffffffffffffffffffffffffffffffffffff1681526020019081526020016000206000828254611783919061385b565b92505081905550816002600083815260200190815260200160002060006101000a81548173ffffffffffffffffffffffffffffffffffffffff021916908373ffffffffffffffffffffffffffffffffffffffff160217905550808273ffffffffffffffffffffffffffffffffffffffff168473ffffffffffffffffffffffffffffffffffffffff167fddf252ad1be2c89b69c2b068fc378daa952ba7f163c4a11628f55a4df523b3ef60405160405180910390a4505050565b60606000821415611884576040518060400160405280600181526020017f300000000000000000000000000000000000000000000000000000000000000081525090506119e4565b600082905060005b600082146118b657808061189f90613a58565b915050600a826118af91906138b1565b915061188c565b60008167ffffffffffffffff8111156118f8577f4e487b7100000000000000000000000000000000000000000000000000000000600052604160045260246000fd5b6040519080825280601f01601f19166020018201604052801561192a5781602001600182028036833780820191505090505b5090505b600085146119dd57600182611943919061393c565b9150600a856119529190613aa1565b603061195e919061385b565b60f81b81838151811061199a577f4e487b7100000000000000000000000000000000000000000000000000000000600052603260045260246000fd5b60200101907effffffffffffffffffffffffffffffffffffffffffffffffffffffffffffff1916908160001a905350600a856119d691906138b1565b945061192e565b8093505050505b919050565b6000816040516020016119fc919061326c565b6040516020818303038152906040528051906020012060001c9050919050565b8173ffffffffffffffffffffffffffffffffffffffff168373ffffffffffffffffffffffffffffffffffffffff161415611a8b576040517f08c379a0000000000000000000000000000000000000000000000000000000008152600401611a82906135c7565b60405180910390fd5b80600560008573ffffffffffffffffffffffffffffffffffffffff1673ffffffffffffffffffffffffffffffffffffffff16815260200190815260200160002060008473ffffffffffffffffffffffffffffffffffffffff1673ffffffffffffffffffffffffffffffffffffffff16815260200190815260200160002060006101000a81548160ff0219169083151502179055508173ffffffffffffffffffffffffffffffffffffffff168373ffffffffffffffffffffffffffffffffffffffff167f17307eab39ab6107e8899845ad3d59bd9653f200f220920489ca2b5937696c3183604051611b7c91906134a0565b60405180910390a3505050565b611b948484846115e0565b611ba0848484846120b6565b611bdf576040517f08c379a0000000000000000000000000000000000000000000000000000000008152600401611bd690613567565b60405180910390fd5b50505050565b606060405180602001604052806000815250905090565b6060611c07826113d5565b611c46576040517f08c379a0000000000000000000000000000000000000000000000000000000008152600401611c3d90613707565b60405180910390fd5b6000611c50611be5565b90506000815111611c705760405180602001604052806000815250611c9b565b80611c7a8461183c565b604051602001611c8b929190613283565b6040516020818303038152906040525b915050919050565b600081600001549050919050565b60606000825190506000811415611cda5760405180602001604052806000815250915050611e6a565b60006003600283611ceb919061385b565b611cf591906138b1565b6004611d0191906138e2565b90506000602082611d12919061385b565b67ffffffffffffffff811115611d51577f4e487b7100000000000000000000000000000000000000000000000000000000600052604160045260246000fd5b6040519080825280601f01601f191660200182016040528015611d835781602001600182028036833780820191505090505b5090506000604051806060016040528060408152602001613c21604091399050600181016020830160005b86811015611e275760038101905062ffffff818a015116603f8160121c168401518060081b905060ff603f83600c1c1686015116810190508060081b905060ff603f8360061c1686015116810190508060081b905060ff603f831686015116810190508060e01b90508084526004840193505050611dae565b506003860660018114611e415760028114611e5157611e5c565b613d3d60f01b6002830352611e5c565b603d60f81b60018303525b508484525050819450505050505b919050565b60968110611eb2576040517f08c379a0000000000000000000000000000000000000000000000000000000008152600401611ea990613767565b60405180910390fd5b611ebc828261224d565b5050565b611f5a838383604051602401611ed8939291906134dd565b6040516020818303038152906040527f2ced7cef000000000000000000000000000000000000000000000000000000007bffffffffffffffffffffffffffffffffffffffffffffffffffffffff19166020820180517bffffffffffffffffffffffffffffffffffffffffffffffffffffffff8381831617835250505050612088565b505050565b611f68826113d5565b611fa7576040517f08c379a0000000000000000000000000000000000000000000000000000000008152600401611f9e90613667565b60405180910390fd5b80600660008481526020019081526020016000209080519060200190611fce9291906124a7565b505050565b6001816000016000828254019250508190555050565b61208383838360405160240161200193929190613529565b6040516020818303038152906040527fe3849f79000000000000000000000000000000000000000000000000000000007bffffffffffffffffffffffffffffffffffffffffffffffffffffffff19166020820180517bffffffffffffffffffffffffffffffffffffffffffffffffffffffff8381831617835250505050612088565b505050565b60008151905060006a636f6e736f6c652e6c6f679050602083016000808483855afa5050505050565b505050565b60006120d78473ffffffffffffffffffffffffffffffffffffffff1661226b565b15612240578373ffffffffffffffffffffffffffffffffffffffff1663150b7a02612100611441565b8786866040518563ffffffff1660e01b8152600401612122949392919061342b565b602060405180830381600087803b15801561213c57600080fd5b505af192505050801561216d57506040513d601f19601f8201168201806040525081019061216a91906127eb565b60015b6121f0573d806000811461219d576040519150601f19603f3d011682016040523d82523d6000602084013e6121a2565b606091505b506000815114156121e8576040517f08c379a00000000000000000000000000000000000000000000000000000000081526004016121df90613567565b60405180910390fd5b805181602001fd5b63150b7a0260e01b7bffffffffffffffffffffffffffffffffffffffffffffffffffffffff1916817bffffffffffffffffffffffffffffffffffffffffffffffffffffffff191614915050612245565b600190505b949350505050565b61226782826040518060200160405280600081525061227e565b5050565b600080823b905060008111915050919050565b61228883836122d9565b61229560008484846120b6565b6122d4576040517f08c379a00000000000000000000000000000000000000000000000000000000081526004016122cb90613567565b60405180910390fd5b505050565b600073ffffffffffffffffffffffffffffffffffffffff168273ffffffffffffffffffffffffffffffffffffffff161415612349576040517f08c379a000000000000000000000000000000000000000000000000000000000815260040161234090613687565b60405180910390fd5b612352816113d5565b15612392576040517f08c379a000000000000000000000000000000000000000000000000000000000815260040161238990613587565b60405180910390fd5b61239e600083836120b1565b6001600360008473ffffffffffffffffffffffffffffffffffffffff1673ffffffffffffffffffffffffffffffffffffffff16815260200190815260200160002060008282546123ee919061385b565b92505081905550816002600083815260200190815260200160002060006101000a81548173ffffffffffffffffffffffffffffffffffffffff021916908373ffffffffffffffffffffffffffffffffffffffff160217905550808273ffffffffffffffffffffffffffffffffffffffff16600073ffffffffffffffffffffffffffffffffffffffff167fddf252ad1be2c89b69c2b068fc378daa952ba7f163c4a11628f55a4df523b3ef60405160405180910390a45050565b8280546124b390613a26565b90600052602060002090601f0160209004810192826124d5576000855561251c565b82601f106124ee57805160ff191683800117855561251c565b8280016001018555821561251c579182015b8281111561251b578251825591602001919060010190612500565b5b509050612529919061252d565b5090565b5b8082111561254657600081600090555060010161252e565b5090565b600061255d612558846137d3565b6137a2565b90508281526020810184848401111561257557600080fd5b6125808482856139e4565b509392505050565b60008135905061259781613b9f565b92915050565b6000813590506125ac81613bb6565b92915050565b6000813590506125c181613bcd565b92915050565b6000815190506125d681613bcd565b92915050565b600082601f8301126125ed57600080fd5b81356125fd84826020860161254a565b91505092915050565b60008135905061261581613be4565b92915050565b60006020828403121561262d57600080fd5b600061263b84828501612588565b91505092915050565b6000806040838503121561265757600080fd5b600061266585828601612588565b925050602061267685828601612588565b9150509250929050565b60008060006060848603121561269557600080fd5b60006126a386828701612588565b93505060206126b486828701612588565b92505060406126c586828701612606565b9150509250925092565b600080600080608085870312156126e557600080fd5b60006126f387828801612588565b945050602061270487828801612588565b935050604061271587828801612606565b925050606085013567ffffffffffffffff81111561273257600080fd5b61273e878288016125dc565b91505092959194509250565b6000806040838503121561275d57600080fd5b600061276b85828601612588565b925050602061277c8582860161259d565b9150509250929050565b6000806040838503121561279957600080fd5b60006127a785828601612588565b92505060206127b885828601612606565b9150509250929050565b6000602082840312156127d457600080fd5b60006127e2848285016125b2565b91505092915050565b6000602082840312156127fd57600080fd5b600061280b848285016125c7565b91505092915050565b60006020828403121561282657600080fd5b600061283484828501612606565b91505092915050565b61284681613970565b82525050565b61285581613982565b82525050565b600061286682613818565b612870818561382e565b93506128808185602086016139f3565b61288981613b8e565b840191505092915050565b600061289f82613823565b6128a9818561383f565b93506128b98185602086016139f3565b6128c281613b8e565b840191505092915050565b60006128d882613823565b6128e28185613850565b93506128f28185602086016139f3565b80840191505092915050565b6000815461290b81613a26565b6129158186613850565b94506001821660008114612930576001811461294157612974565b60ff19831686528186019350612974565b61294a85613803565b60005b8381101561296c5781548189015260018201915060208101905061294d565b838801955050505b50505092915050565b600061298a60328361383f565b91507f4552433732313a207472616e7366657220746f206e6f6e20455243373231526560008301527f63656976657220696d706c656d656e74657200000000000000000000000000006020830152604082019050919050565b60006129f0601c8361383f565b91507f4552433732313a20746f6b656e20616c7265616479206d696e746564000000006000830152602082019050919050565b6000612a30600a83613850565b91507f54484952445f574f5244000000000000000000000000000000000000000000006000830152600a82019050919050565b6000612a7060248361383f565b91507f4552433732313a207472616e7366657220746f20746865207a65726f2061646460008301527f72657373000000000000000000000000000000000000000000000000000000006020830152604082019050919050565b6000612ad660198361383f565b91507f4552433732313a20617070726f766520746f2063616c6c6572000000000000006000830152602082019050919050565b6000612b16606383613850565b91507f222c20226465736372697074696f6e223a20224120686967686c79206163636c60008301527f61696d656420636f6c6c656374696f6e206f6620737175617265732e222c202260208301527f696d616765223a2022646174613a696d6167652f7376672b786d6c3b6261736560408301527f36342c00000000000000000000000000000000000000000000000000000000006060830152606382019050919050565b6000612bc8600b83613850565b91507f5345434f4e445f574f52440000000000000000000000000000000000000000006000830152600b82019050919050565b6000612c08602c8361383f565b91507f4552433732313a206f70657261746f7220717565727920666f72206e6f6e657860008301527f697374656e7420746f6b656e00000000000000000000000000000000000000006020830152604082019050919050565b6000612c6e600d83613850565b91507f3c2f746578743e3c2f7376673e000000000000000000000000000000000000006000830152600d82019050919050565b6000612cae60388361383f565b91507f4552433732313a20617070726f76652063616c6c6572206973206e6f74206f7760008301527f6e6572206e6f7220617070726f76656420666f7220616c6c00000000000000006020830152604082019050919050565b6000612d14602a8361383f565b91507f4552433732313a2062616c616e636520717565727920666f7220746865207a6560008301527f726f2061646472657373000000000000000000000000000000000000000000006020830152604082019050919050565b6000612d7a60298361383f565b91507f4552433732313a206f776e657220717565727920666f72206e6f6e657869737460008301527f656e7420746f6b656e00000000000000000000000000000000000000000000006020830152604082019050919050565b6000612de0602e8361383f565b91507f45524337323155524953746f726167653a2055524920736574206f66206e6f6e60008301527f6578697374656e7420746f6b656e0000000000000000000000000000000000006020830152604082019050919050565b6000612e46600283613850565b91507f227d0000000000000000000000000000000000000000000000000000000000006000830152600282019050919050565b6000612e8660208361383f565b91507f4552433732313a206d696e7420746f20746865207a65726f20616464726573736000830152602082019050919050565b6000612ec660318361383f565b91507f45524337323155524953746f726167653a2055524920717565727920666f722060008301527f6e6f6e6578697374656e7420746f6b656e0000000000000000000000000000006020830152604082019050919050565b6000612f2c602c8361383f565b91507f4552433732313a20617070726f76656420717565727920666f72206e6f6e657860008301527f697374656e7420746f6b656e00000000000000000000000000000000000000006020830152604082019050919050565b6000612f9260298361383f565b91507f4552433732313a207472616e73666572206f6620746f6b656e2074686174206960008301527f73206e6f74206f776e00000000000000000000000000000000000000000000006020830152604082019050919050565b6000612ff8602f8361383f565b91507f4552433732314d657461646174613a2055524920717565727920666f72206e6f60008301527f6e6578697374656e7420746f6b656e00000000000000000000000000000000006020830152604082019050919050565b600061305e600a83613850565b91507f7b226e616d65223a2022000000000000000000000000000000000000000000006000830152600a82019050919050565b600061309e60218361383f565b91507f4552433732313a20617070726f76616c20746f2063757272656e74206f776e6560008301527f72000000000000000000000000000000000000000000000000000000000000006020830152604082019050919050565b6000613104600a83613850565b91507f46495253545f574f5244000000000000000000000000000000000000000000006000830152600a82019050919050565b6000613144601d83613850565b91507f646174613a6170706c69636174696f6e2f6a736f6e3b6261736536342c0000006000830152601d82019050919050565b600061318460318361383f565b91507f4552433732313a207472616e736665722063616c6c6572206973206e6f74206f60008301527f776e6572206e6f7220617070726f7665640000000000000000000000000000006020830152604082019050919050565b60006131ea60138361383f565b91507f416c6c204e46547320617265204d696e746564000000000000000000000000006000830152602082019050919050565b600061322a600583613850565b91507f434f4c4f520000000000000000000000000000000000000000000000000000006000830152600582019050919050565b613266816139da565b82525050565b600061327882846128cd565b915081905092915050565b600061328f82856128cd565b915061329b82846128cd565b91508190509392505050565b60006132b382866128cd565b91506132bf82856128cd565b91506132cb82846128cd565b9150819050949350505050565b60006132e482876128fe565b91506132f082866128cd565b91506132fc82856128fe565b915061330882846128cd565b915061331382612c61565b915081905095945050505050565b600061332c82612a23565b915061333882846128cd565b915081905092915050565b600061334e82612bbb565b915061335a82846128cd565b915081905092915050565b600061337082613051565b915061337c82856128cd565b915061338782612b09565b915061339382846128cd565b915061339e82612e39565b91508190509392505050565b60006133b5826130f7565b91506133c182846128cd565b915081905092915050565b60006133d782613137565b91506133e382846128cd565b915081905092915050565b60006133f98261321d565b915061340582846128cd565b915081905092915050565b6000602082019050613425600083018461283d565b92915050565b6000608082019050613440600083018761283d565b61344d602083018661283d565b61345a604083018561325d565b818103606083015261346c818461285b565b905095945050505050565b600060408201905061348c600083018561283d565b613499602083018461325d565b9392505050565b60006020820190506134b5600083018461284c565b92915050565b600060208201905081810360008301526134d58184612894565b905092915050565b600060608201905081810360008301526134f78186612894565b9050818103602083015261350b8185612894565b9050818103604083015261351f8184612894565b9050949350505050565b600060608201905081810360008301526135438186612894565b9050613552602083018561325d565b61355f604083018461283d565b949350505050565b600060208201905081810360008301526135808161297d565b9050919050565b600060208201905081810360008301526135a0816129e3565b9050919050565b600060208201905081810360008301526135c081612a63565b9050919050565b600060208201905081810360008301526135e081612ac9565b9050919050565b6000602082019050818103600083015261360081612bfb565b9050919050565b6000602082019050818103600083015261362081612ca1565b9050919050565b6000602082019050818103600083015261364081612d07565b9050919050565b6000602082019050818103600083015261366081612d6d565b9050919050565b6000602082019050818103600083015261368081612dd3565b9050919050565b600060208201905081810360008301526136a081612e79565b9050919050565b600060208201905081810360008301526136c081612eb9565b9050919050565b600060208201905081810360008301526136e081612f1f565b9050919050565b6000602082019050818103600083015261370081612f85565b9050919050565b6000602082019050818103600083015261372081612feb565b9050919050565b6000602082019050818103600083015261374081613091565b9050919050565b6000602082019050818103600083015261376081613177565b9050919050565b60006020820190508181036000830152613780816131dd565b9050919050565b600060208201905061379c600083018461325d565b92915050565b6000604051905081810181811067ffffffffffffffff821117156137c9576137c8613b5f565b5b8060405250919050565b600067ffffffffffffffff8211156137ee576137ed613b5f565b5b601f19601f8301169050602081019050919050565b60008190508160005260206000209050919050565b600081519050919050565b600081519050919050565b600082825260208201905092915050565b600082825260208201905092915050565b600081905092915050565b6000613866826139da565b9150613871836139da565b9250827fffffffffffffffffffffffffffffffffffffffffffffffffffffffffffffffff038211156138a6576138a5613ad2565b5b828201905092915050565b60006138bc826139da565b91506138c7836139da565b9250826138d7576138d6613b01565b5b828204905092915050565b60006138ed826139da565b91506138f8836139da565b9250817fffffffffffffffffffffffffffffffffffffffffffffffffffffffffffffffff048311821515161561393157613930613ad2565b5b828202905092915050565b6000613947826139da565b9150613952836139da565b92508282101561396557613964613ad2565b5b828203905092915050565b600061397b826139ba565b9050919050565b60008115159050919050565b60007fffffffff0000000000000000000000000000000000000000000000000000000082169050919050565b600073ffffffffffffffffffffffffffffffffffffffff82169050919050565b6000819050919050565b82818337600083830152505050565b60005b83811015613a115780820151818401526020810190506139f6565b83811115613a20576000848401525b50505050565b60006002820490506001821680613a3e57607f821691505b60208210811415613a5257613a51613b30565b5b50919050565b6000613a63826139da565b91507fffffffffffffffffffffffffffffffffffffffffffffffffffffffffffffffff821415613a9657613a95613ad2565b5b600182019050919050565b6000613aac826139da565b9150613ab7836139da565b925082613ac757613ac6613b01565b5b828206905092915050565b7f4e487b7100000000000000000000000000000000000000000000000000000000600052601160045260246000fd5b7f4e487b7100000000000000000000000000000000000000000000000000000000600052601260045260246000fd5b7f4e487b7100000000000000000000000000000000000000000000000000000000600052602260045260246000fd5b7f4e487b7100000000000000000000000000000000000000000000000000000000600052604160045260246000fd5b6000601f19601f8301169050919050565b613ba881613970565b8114613bb357600080fd5b50565b613bbf81613982565b8114613bca57600080fd5b50565b613bd68161398e565b8114613be157600080fd5b50565b613bed816139da565b8114613bf857600080fd5b5056fe416e204e465420772f20494420257320686173206265656e206d696e74656420746f2025734142434445464748494a4b4c4d4e4f505152535455565758595a6162636465666768696a6b6c6d6e6f707172737475767778797a303132333435363738392b2fa264697066735822122035d01573bef5b443c9e9323b1d66bff9c72b830dd6d6035f6c56a59cfd0b591164736f6c634300080000333c73766720786d6c6e733d27687474703a2f2f7777772e77332e6f72672f323030302f73766727207072657365727665417370656374526174696f3d27784d696e594d696e206d656574272076696577426f783d273020302033353020333530273e3c7374796c653e2e62617365207b2066696c6c3a2077686974653b20666f6e742d66616d696c793a2073657269663b20666f6e742d73697a653a20323470783b207d3c2f7374796c653e3c726563742077696474683d273130302527206865696768743d2731303025272066696c6c3d27272f3e3c7465787420783d273530252720793d273530252720636c6173733d27626173652720646f6d696e616e742d626173656c696e653d276d6964646c652720746578742d616e63686f723d276d6964646c65273e",
  "linkReferences": {},
  "deployedLinkReferences": {}
}